:020000040000FA
:040000008A017829D0
:040004000034003490
:08000800F000030E8301F1007A
:100010000A08F2008A018B190B1C9A2806080B109B
:10002000861B28286C1A31280313831681120313A8
:1000300083126C166C176D1F3128ED1E23281211C8
:10004000ED126D13312891018C101215ED16312827
:100050006C1E3128031383168116031383126C124E
:100060003128061F9928EC199A28EC16EC15C20ABB
:100070000319C10A6E1C4628EE1C422812116E108C
:10008000EE10462891018C101215EE14B40A0319D3
:10009000B30A36083302031D4F2837083402031C05
:1000A0005428B301B401C621B00A0319AF0A3608B7
:1000B0002F02031D5D2837083002031C6428AF019E
:1000C000B001A40A0319A30A03138316BC0A031977
:1000D000BB0A031383123608031383163B02031D66
:1000E0007728031383123708031383163C02031C7B
:1000F0007E28BB01BC01BA0A0319B90AC90A03194F
:10010000C80A031383123608031383164802031D1B
:100110008F28031383123708031383164902031C25
:100120009628C801C901C70A0319C60A0313831216
:100130009A28EC118B1A0B1DE528CB0A0319CC0A5F
:10014000B203031DB0284130B81A8230B200B10AA0
:1001500035083102031DB028B101AE0A0319AD0AFA
:1001600003138316C003031DCA28031383124130EF
:10017000B81A823003138316C000BF0A0313831218
:100180003508031383163F02031DCA28BF01BE0AA8
:100190000319BD0AD003031DE22803138312413063
:1001A000B81A823003138316D000CF0A03138312C8
:1001B0003508031383164F02031DE228CF01CE0A30
:1001C0000319CD0A031383120B110C1C42290C10C6
:1001D0000B308F00DC308E006E1DF1280F308A004E
:1001E000B62F0A306B02031DF828EC1AE10AE0036F
:1001F000BA16ED1CFF280B307B02031CFB0AED1D19
:1002000005290B307C02031CFC0AEF0B4229143039
:10021000EF00EC146C1FEC1A0E293129031383161E
:10022000B20A0319B10A0319B00AC30A0319C20AB0
:100230000319C10ACC0A0319CB0A0319CA0AB40A62
:100240000319B30A083034020730031C013E33029D
:10025000031C2F29B401B301B60A0319B50A03130D
:1002600083124208C0004108BF00C201C1014B080F
:10027000C3004C08C400CB01CC01F30B42290F3062
:10028000F300ED178C1C53298C10C60A0319C50AFC
:10029000031D53291211FF30C600C5000313831636
:1002A00081160313831272088A00710E8300F00E08
:0402B000700E0900C3
:1002D000EC106B088207EF2A782BF32BF62B972C68
:1002E000C02CD02BC32BC62BC92B762B6F2BD32C1A
:1002F00010308A0000208A0106198129AD26061DCA
:1003000088295D2616308A008A2601308A00EF2A65
:1003100006308A0052267F30C9004130CE000B30B3
:10032000CD001B308A00B72301308A00061D9629B4
:1003300011308A00FB29ED1B5D2616308A008C26C1
:1003400001308A001D2286226D186D1AB9297A089B
:100350000319AC29EB00B4290730EB0A6C1BB12957
:1003600007306B020318EB01FA016D106D11BA1121
:100370003A12D821EC1C9B29EC1AF52101308A0095
:1003800068296D106D11EC126C139B29A20A0319D8
:10039000A10A0319A00AA60A0319A50AA80A0319A3
:1003A000A70AAA0A0319A90AAC0A0319AB0A08008A
:1003B000E83024020330031C013E2302031CE4291D
:1003C0000F308A006E278A010313831610303A0219
:1003D0002730031C013E3902031CF2290F308A002A
:1003E00081278A010313831208008A154630E7002B
:1003F0005030E6004008E8003F08E900E5223608F2
:10040000E8003708E700FF268A11DE308400640820
:100410008000840A650880000313831661085F0268
:100420006008031C013E5E02031C1A2A5F08E100FB
:100430005E08E0000313831208000619332AED1C3E
:100440002D2A0A307B02031D2C2ABA150B30FB0023
:10045000381C2C2A6E15EE160800AD260619080069
:10046000ED14FB01412AED1C402A0A307B020318DF
:10047000402A6D145226EC14381C402A6E15EE16D4
:10048000ED108619572AED1D512A0A307C02031DF2
:10049000502A3A160B30FC00381C502A6E15EE1606
:1004A0000800AD2686190800ED15FC01652AED1D32
:1004B000642A0A307C020318642A6D155226EC1453
:1004C000381C642A6E15EE16ED110800AD26AD2617
:1004D000851808008A1500208A11D130840051083F
:1004E0008000840A52088000840A54088000840A2C
:1004F00055088000840A5608800011308A008F2138
:1005000002308A00031383120510852A851C662297
:10051000080003138316DC01DD017F30DA00DB0104
:10052000DB03E001E1010313831216308A008A26FF
:1005300002308A000430EB006D11EC14BA29BA1FA6
:10054000A62A0F308A0098278A01B12ABA1CAD2A40
:100550000F308A0081278A01B12A0F308A006E2766
:100560008A017A08EB006D11EC14BA2902308A0076
:10057000031383166808031383128207C32AC32A4E
:10058000CF2AD32AD72AA601A50103138316B501C2
:10059000B601B301B401031383122030DA2AA80193
:1005A000A7012330DA2AAA01A9012630DA2AAC01F0
:1005B000AB0129300A16E7210630EB00B32A0530DB
:1005C000EB006D11EC143A1CBA296D16D70A0F30E6
:1005D000CA00F825FF30CA00F825BA26BA296D1DD1
:1005E000FB2A6D1103138316C40A4408033A031946
:1005F000C40103138312EC1E0D2B031383165E0834
:1006000003138312031D162B3130031383165F026D
:1006100003138312031C222B162B6C1B222B8A150F
:100620008830F4258A15C9300024302B8430C90065
:100630002030CA00F5258A15803043268A15C93036
:10064000B4243B2B3A1A662B8830C9002030CA00EC
:10065000F525F4258A308A15A3238A15C930E724A5
:100660008A1500207F307026C90A94259425942588
:100670006C1B442B5D2B8830C9002030CA00F52547
:10068000F4258A308A15A32303308A0003138316C6
:100690004408031383128207542B5D2B4F2BBA1788
:1006A000C0308A15A625642B8A018A15BE30002425
:1006B000C90A942594259425642B8A01A2308400CC
:1006C000A726C0308A1534233A12C1290B30EB001B
:1006D0003A12EC1452261E308A00E820BA296D1D09
:1006E000C1290A30EB006D11EC14BA298A15992E34
:1006F000BA13BA10BA176D1D872B6D110313831629
:10070000C50A4508043A0319C501031383123A1EAA
:10071000912B3A126B08FA000730EB00EC145226CA
:10072000BA29EC1A992B6C1B992B80308A15F42569
:100730009C2B80308A15A32389308A151525C0305B
:100740008A15A62503308A00031383164508031370
:1007500083128207AE2BB22BB52BB92BCA308A1568
:100760008924C129CA305E27C129CA308A15382494
:10077000C1290E308A00CA303E26C930C90019305E
:100780008A00A121C1296D199F2ACC2B6D19892AB4
:10079000CC2B6D19B62ACC2B18308A008720C129A2
:1007A0006D1DDC2B6D1103138316E80A6808053AEA
:1007B0000319E801031383123A1EE62B3A126B0861
:1007C000FA000930EB00EC145226BA2903308A00F3
:1007D000031383166808031383128207392C4E2CE7
:1007E000572C602C682CBA10E930F82BBA14EA3078
:1007F000BA1384006D1D022C6D11800A0008023AA4
:10080000031980013A1E0C2C3A126B08FA000730CB
:10081000EB00EC145226BA297F30C90019308A0047
:10082000A92104308A002030F1254130BA18423025
:10083000F12588308A15A42504308A00BA18242CA2
:10084000031383166908272C031383166A080313FE
:10085000831282072C2C322CBF308A151525CA3002
:100860005E27C129C0308A153624CA308A158924EA
:10087000C1291F308A009B200313831636080313F7
:100880008312E60003138316350803138312E7006F
:10089000E801C0308A15222620306F2C1F308A00D4
:1008A000A520B22025308A15EB2520306F2C1F3073
:1008B0008A00A520BA2027308A15EB2523306F2C1B
:1008C0001F308A00C22029308A15EB2526306F2C74
:1008D0001F308A00CC202B308A15EB252930482583
:1008E000C1293A1B952C8A15893000241F308A00B3
:1008F0007F30D620A0308400A72684308A15342388
:100900001F308A00BF30DF20A2308400A726C43009
:100910008A1534231E308A00CA30FC20A43084009B
:10092000A726CC308A156A23C129EC14AC296D198D
:10093000B92C0E308A0080303E267F30C900193035
:100940008A00A1210C308A00893000240B308A00F3
:10095000BF30FA23BF30C90019308A0099210B300B
:100960008A00C930FD23C930C90019308A00A1218D
:10097000C1296B08FA000830EB006D11EC14BA299C
:100980006D1AC72C6D19CE2C8A1500208A117F3064
:100990003A18CC2C7026CD2CD924C1290C30EB0070
:1009A0006D11EC14BA296D19DF2A1E308A009120CE
:1009B000C1296D1CED2C6D10D70A5708073A031D8D
:1009C000F42CD7016D120F30CA00F825CF30CA00C1
:1009D000F8258A1505208A11F42C6D1A6D1DF42C4A
:1009E0000A308A0000228A018030C900520E033981
:1009F0003038CA00F52552080F393038CA00F425BE
:100A00003A30F125510E0F393038CA00F42551081B
:100A10000F393038CA00F4258630C900540E0F391A
:100A20003038CA00F42554080F393038CA00F4258C
:100A300018308A0000202730381F2730F125560E45
:100A40000F393038CA00F42556080F393038CA003B
:100A5000F425BF30C90018308A001D20570803193B
:100A600008000A308A0098228A01C9008710F030F5
:100A7000870449080F3887058715C4268711F03089
:100A80008704490E0F3887058715C426871108008B
:100A9000031783128D00D326E400D326E500D32666
:100AA000E600C830C9006409031D652D2D30CA0059
:100AB000F525F425CA0AF425CA03F425F425CA0A43
:100AC000F425CA03F425F4250800640E0F393038E4
:100AD000CA00F52564080F393038CA00F4252E30D5
:100AE000F125650E0F393038CA00F42565080F3935
:100AF0003038CA00F4252E30F125660E0F39303813
:100B0000CA00F42566080F393038CA00F4250800F9
:100B10006C1D912D30304A06031D902D942D912D82
:100B20006C11F525C90A08002030CA00F525C90A4C
:100B30000800E301F63E031C9F2DE30A9A2D0A3EAE
:100B4000E30EE304080003101830E900E301E401B8
:100B5000E501E60DE70DE80DE50DE40DE30DE90B0C
:100B6000B22D003465308400BC2564308400BC257F
:100B700063308400BC25A92D03300007EA00EA1980
:100B8000800030300007EA00EA1B80000034871044
:100B9000F030870449080F3887058715C426871168
:100BA000F0308704490E0F3887058715C426871152
:100BB0000800BF268714F03087044A080F388705DD
:100BC0008715C4268711F03087044A0E0F38870531
:100BD0008715C42687118710F03087040800CA00E3
:100BE000F52DCA00C90AF52DC90AC725D92508005F
:100BF0000711F03087044A0887058715C426871136
:100C0000F03087040800AD268710071187113F30A8
:100C1000CA00F825AD263F30CA00F825BF263F3070
:100C2000CA00F825BA26BA262F30CA00F8252F3078
:100C3000CA00F8258F30CA00F825BA260F30CA003E
:100C4000F8258F30CA00F825BA260F30CA00F825DB
:100C50006F30CA00F825BA260F30CA00F825CF3009
:100C6000CA00F825BA26E3016308C9000310C90DBC
:100C7000C90D490DCE00403EC900C725E40117301B
:100C80008A006027CA0006308A00D925CE0AE40A05
:100C90006408083903193F2EE30A63080839031969
:100CA000342E0800B026871007110F30CA00F8252F
:100CB0001F30CA00F825B02608000330CE00ED131F
:100CC0008A1530303621A8208A116C186B2ECE037D
:100CD0008830D800D9008313A0308400A126B02624
:100CE0008A1538303621A8208A116C187B2ECE0345
:100CF0008830D800D9008313A2308400A126B02602
:100D00008A1540303621A8208A116C188B2ECE030C
:100D10008830D800D9008313A4308400A1263A1368
:100D2000B81C080003138316A51B9E2E0430250251
:100D3000031C9E2E031383120130EB2E0313831228
:100D4000080058088000840A59088000080000083C
:100D5000E600840A0008E7000800C701C801CE2E9B
:100D60000030C700E530C800CE2E5530C700FE3039
:100D7000C800CE2EB530C700FE30C800CE2E54308D
:100D8000C700FF30C800CE2EA030C700FF30C8001B
:100D9000CE2EFB30C700FF30C8000000C70FCE2E9C
:100DA000C80FCE2E0800031783168C130C140317DC
:100DB00083120C088D0A0313831208008030E12E81
:100DC000C030C9000F30CE002030CA00F525F42510
:100DD000CE0BE72E0800DC00E0016E158A015226DA
:100DE0008230C900F030CE000930CD001B308A00BF
:100DF000B7235C18FE2E07308A000F2F6E17BF3006
:100E0000C9006B30CE000B30CD001B308A00C323ED
:100E1000A4308400A726CC308A156A235427EE1705
:100E2000DC1C1D2FE026C130C9009F30CE000E30E3
:100E3000CD001B308A00B72354275C1D2A2FE026E3
:100E4000C130C900AF30CE000D30CD001B308A005C
:100E5000B7235427DC1D372FE026C330C900CF301D
:100E6000CE000830CD001B308A00B72354275C1E0B
:100E7000442FE026C230C900BF30CE000A30CD007A
:100E80001B308A00B7235427DC1F512FE026C130C6
:100E9000C900C730CE000E30CD001B308A00C323FE
:100EA00054275226EC140800EC1C542FEC10E00AD6
:100EB00003306002031D542FE0010800C9008A15A9
:100EC0007C258A11033065020030031C013E660256
:100ED000031CCA2F6308E6006408E7006508E80001
:100EE000FD010730FE000830FF008A151E27B030D4
:100EF000BA18C130BA1BCA3084000008FD00840A49
:100F00000008FE00840A0008FF003B270038031990
:100F1000CA2F66086806E606E8068A11A325640E4D
:100F20000F393038CA00303A0319AC2F63080F3933
:100F30003038CA006C158825640E0F393038CA0065
:100F4000882564080F393038CA008825650E0F39A6
:100F50003038CA00F525C22F303AC9036C158825F0
:100F600064080F393038CA008825650E0F393038CB
:100F7000CA00F5252E30CA00F42565080F3930382F
:100F8000CA00F4250030F1250130F1252030F1258B
:100F9000F42508002D30CA00F525F425F425F425A4
:020FA000C22F5E
:101000003A141720D01B08200800D0013620080011
:101010009030D000D1011230D2000630D300213000
:10102000D4000530D5002130D600362008005120EC
:10103000D030CD005F203A1C0800CD015F203A1C63
:1010400008004920D130CD005F203A1C0800503004
:1010500084000730D7002D28A02086204D0880006E
:10106000840AD703031D2C28592008005120D030B2
:10107000CD005F20CD015F20503084000730D700C5
:101080000008CD005F20840AD703031D40285920A3
:10109000080006144B2886144D2806104F28861089
:1010A0000800861453280614552806105728861061
:1010B000080006105B2886145D2806140800083016
:1010C000CE008610632806146528CD1F06106828F8
:1010D00086146A28CD0D86106D28CE0B6328061461
:1010E00003138316061403138312CE01CE0A0319C9
:1010F0007C28061876287E283A10080086140313E8
:101100008316061003138312861008000830CE00E1
:101110000313831606140313831286108F28CD0D34
:10112000861492284D140000061C4D108610982835
:10113000CE0B8F28031383160610031383120800A7
:101140008610A2280610A4288614A6288610080057
:101150000330DC006A212621BE307721E101FF3017
:101160007721D8009121FF307721D9009121FF30DC
:1011700077219121FF3077219121FF307721912133
:10118000FF3077219121FF307721DA009121FF3064
:101190007721DB009121FF307721E1020319D62866
:1011A0000030AC21DC0BAA286C1021296C14B81F6C
:1011B00005295A085B02E500E6010A30E700E8016C
:1011C00006236308E5006408E6005B08E700E80121
:1011D0001623FE30E307031CE4036308E9006408F8
:1011E000EA00590C580CE5005908E6000A30E700FF
:1011F000E80106236908E3070318E40A6A08E4071C
:101200006308D8006408D90021295908E600580865
:10121000E500D91F0D29E509E6090A30E700E801D4
:1012200006236408E6006308E5001030E700E801E3
:101230001623D91F1D29E409E3096408D9006308AE
:10124000D8006A21262144307721080055307721C3
:10125000831728308400E30100087721840AE30A19
:101260006308083A031D2C2983130800831703170A
:1012700083128D00283084002F308A110A164E20E8
:101280008A150A1203138312831308006C10E101FC
:101290006A2133307721831728308400E301FF303F
:1012A000772180009121840AE30A6308073A031D2D
:1012B0004F29FF3077218000E10203196C1483135A
:1012C000080085128316851283120800831685167E
:1012D0008312080061210030AC21AC21AC21AC218B
:1012E00066210030AC21AC21AC21AC210800E0002B
:1012F0000830DF0061217C297D297E297F29802912
:1013000060186621E00C1830AC21E013851AE01754
:101310006430AC2166210130AC21DF0B7A296008F2
:101320000800E2000830DF0062086106E000600C9F
:1013300061080318183AE000600CE1000310E20CA9
:1013400062086400DF0B95290800DE00DD01DD0B7B
:10135000A729DE0BA7290800DD00DD0BAD29080059
:101400006D11570882070000112A2D2A452A622AE9
:101410007F2AD30A5308083A031D08000130D3007D
:10142000080052080F39E300520E0F39E500E30AB5
:1014300063080A3A0319252A6508023A031D272A78
:101440006308043A03192B2A272AE301E50A650EEB
:101450006304D2000800D201080051080F39E300EC
:10146000510E0F39E500E30A63080A3A03193C2AD2
:10147000650E6304D1000800E301E50A6508063A39
:101480000319432A382AD101080054080F39E30010
:10149000540E0F39E500E30A63080A3A0319592A82
:1014A0006508033A031D5B2A6308023A03195F2AA1
:1014B0005B2AE301E50A650E6304D40008000130ED
:1014C000D400080055080F39E300550E0F39E50028
:1014D000E30A63080A3A0319762A6508013A031DEC
:1014E000782A6308033A03197C2A782AE301E50A7B
:1014F000650E6304D50008000130D50008005608C9
:101500000F39E300560E0F39E500E30A63080A3A83
:1015100003198F2A6508033A031D912A952AE301CE
:10152000E50A650E6304D60008001830D6000800EE
:101530005708820700008134843488348B348E3419
:10154000C034C534C634C734C834C934CA34C434CA
:10155000C534C634C734C834C934CA34CB34E901BD
:10156000EA011830E600E50DE40DE30DEA0DE90DA2
:10157000E60D6708EA026808031C680FE902031811
:1015800066146618C62AE9076708EA070310E60C1E
:10159000E60BB32AE50DE40DE30D0800E301E401D9
:1015A000E5010830EA00E50DE40DE30D6510E61FE6
:1015B000E12A6708E5070318E40A6808E407031846
:1015C000E30AE60DEA0BD32A0800EA01E301E4018D
:1015D0008030E500E70CE60C031CF72A6808E407F6
:1015E00069080318690FE3070318EA0A0310E61FE6
:1015F000FF2A6808E30769080318690FEA07EA0C7D
:10160000E30CE40CE50C031CEA2A0800E301E40106
:10161000E703E71BE803E81B152B6508E30703183E
:10162000E40A6608E4076400082B0800E301E4010B
:101630006708031D1F2B6808031D1F2B0800670880
:10164000E502031CE603E61B2E2B6808E602031CDA
:101650002E2B0130E3070318E40A1F2B6708E50768
:10166000E60A6808E6070800C90088306602031D1C
:10167000472B88306702031D472B2D30CA008A0193
:10168000F525F425F425F425C90A94250800E80178
:101690009223C90AA325640E0F393038CA006C158D
:1016A00088256C19C90364080F393038CA008825A9
:1016B0006C19C903650E0F393038CA00F5252E3074
:1016C000CA00F42565080F393038CA00F425C90A64
:1016D00094250800C90088306602031D7B2B8830E2
:1016E0006702031D7B2BC90AC90A2D30CA008A0173
:1016F000F525F42508008A01E801C90AA325640E2E
:101700000F393038CA006C15882564080F39303815
:10171000CA0088256C19C903650E0F393038CA0014
:10172000F5250800E71F9E2BE709E609E60A0319DD
:10173000E70A2D30CA008A01F52508002B30CA00BF
:101740008A01F5250800C900C501C6016D176D1B8A
:10175000EC18AB2BA72B1211EC18F12B4608E70065
:101760004508E800B81ABD2B0030EA001230E3004B
:101770004F30E4008030E500C52B0030EA0009302E
:10178000E3002730E400C030E500FF266508E700ED
:101790006408E8000A30E600CE226508E600640826
:1017A000E700E8018A11A325640E0F393038CA001A
:1017B0006C15882564080F393038CA008825650EF5
:1017C0000F393038CA00F52565080F393038CA009E
:1017D000F4250230F1250330F1252030F125F425E0
:1017E00000342D30CA008A01F525F425F425F425AE
:1017F000EC100034C900DA30022CC900DC30022CB5
:10180000C900D83084000008E800840A0008E70016
:101810001E30E600CE22031383162A080313831218
:10182000E700E801AF226508E6006408E700630806
:10183000E8008A11A3259425640E0F393038CA00B8
:101840006C15882564080F393038CA008825650E64
:101850000F393038CA00F5252E30F12565080F39CB
:101860003038CA00F4255630F12508003A15392CD5
:101870003A11C900B030BA18C130BA1BCA3084005E
:101880000008E300840A0008E400840A0008E50078
:10189000E8011E30E700AF22E8013C30E700AF224C
:1018A0008A016A0899256308F800E8016408E700DE
:1018B0006508E600A3256C1564080F393038CA00A6
:1018C0008A153A1D672C303A0319692C3A118A019E
:1018D0008825650E0F393038CA008A153A1D742CD8
:1018E000303A0319762C3A118A01882565080F3998
:1018F0003038CA008A01F5253A30F125780E0F39C3
:101900003038CA00F42578080F393038CA00F42579
:1019100008008A01C9002D30BA18BD30BA1BCD307D
:1019200084000008E700840A0008E600E801A32517
:1019300063080F393038CA006C158825640E0F39DA
:101940003038CA00882564080F393038CA00F525B8
:101950002E30F125650E0F393038CA00F4256C3071
:10196000381F6C30F1250800C9003D08E7003E082B
:10197000E6004308E8004408E900E5224008E700E3
:101980003F08E800FF263508E700E801AF226508B8
:10199000E6006408E700E8018A11A3252030F1255C
:1019A00064080F393038CA006C158825650E0F3968
:1019B0003038CA00F5252E30F12565080F3930384A
:1019C000CA00F4250430F1250530F1250800C900CE
:1019D0004308E7004408E8001C30B81A0E30E6005F
:1019E000CE223508E700E801AF226508E60064086A
:1019F000E700E8018A11A3252030F125640E0F3994
:101A00003038CA006C15882564080F393038CA0090
:101A1000F5252E30F125650E0F393038CA00F42532
:101A20000630F1250730F1250800C9002E30BA181C
:101A3000BE30BA1BCE308400053000020030031CDB
:101A4000013E84030002031C702D7C2503306402D8
:101A50000030031C013E6502031C702D6308FD006D
:101A60006408FE006508FF002D30BA18BD30BA1BAF
:101A7000CD3084000008E800840A0008E7006430E4
:101A8000E600CE226308E6006408E7006508E80087
:101A9000E301E401E5013B2700380319702D6608D6
:101AA0006806E606E8068A11A3252030F1256408B9
:101AB0000F393038CA006C158825650E0F3930385B
:101AC000CA00F5252E30F12565080F393038CA00D7
:101AD000F42505308A000430F1250530F125080091
:101AE0008A012030F1252D30CA00F525F425F42592
:101AF000F4250D308A00692D2F30BA18BB30BA1B7F
:101B0000C83084000008E800840A0008E7000A30B2
:101B1000E600CE223608E8003708E700AF22650865
:101B2000E9002330BA18B930BA1BC6308400000867
:101B3000E800840A0008E7000A30E600CE226908BF
:101B4000E5070318E40A08003A11A72D3A15C90061
:101B50007C256308E8006408E7006508E6008A0160
:101B6000A3256C158A1563080F393038CA003A1D51
:101B7000BD2D303A0319BF2D3A118A0188258A15E7
:101B8000640E0F393038CA003A1DCA2D303A031995
:101B9000CC2D3A118A0188258A1564080F3930380E
:101BA000CA003A1DD72D303A0319D92D3A118A01AE
:101BB00088258A01650E0F393038CA00F5252E3088
:101BC000CA00F42565080F393038CA00F4251F30E3
:101BD0008A004D2108008400E8010008E700840A1B
:101BE0000008E600BF30FC2DC9002208E6002108ED
:101BF000E7002008E800FD2DC9008A01A3256C1527
:101C0000630E0F393038CA00882563080F39303821
:101C1000CA008825640E0F393038CA008825640848
:101C20000F393038CA008825650E0F393038CA00A0
:101C3000882565080F393038CA00F5251F308A001D
:101C40004D210800C9008A01A3256C15640E0F39C7
:101C50003038CA00882564080F393038CA00882512
:101C6000650E0F393038CA00882565080F393038BD
:101C7000CA00F5251E308A00552108003A15C90012
:101C8000E03084004A2E3A15FF3E472E3A11C90033
:101C9000DE3084000008E700840A0008E600E8015E
:101CA0003A19582E8A112030CA00F525F425C90AA0
:101CB0008A11A3259425640E0F393038CA006C159B
:101CC000882564080F393038CA008825650E0F3919
:101CD0003038CA00F5250030F1250130F125080023
:101CE000C9003A187F2E8A012D30F1252D30F125BB
:101CF0003A30F1252D30F1252D30F12508008A01EB
:101D00008030C900520E03393038CA00F525520818
:101D10000F393038CA00F4253A30F125510E0F3909
:101D20003038CA00F42551080F393038CA00F4257C
:101D30000800EC1AF52E6430E000E1013630E300D3
:101D4000EE30E4008030E5003708E7003608E800B0
:101D5000AF228A0152261E308A0075218A1560083A
:101D60000319F52EEC1EAF2EC830E0008A01522672
:101D70001E308A00F2208A15C501C6016E14600863
:101D80000319F52E6E18BF2E45086402031CBC2EE5
:101D900046086502031CBC2E3C30E0006E15EE17B1
:101DA0006108E600E701E8018A015226C430C90053
:101DB000A32564080F393038CA00F425650E0F39A1
:101DC0003038CA00F4252E30CA00F42565080F39D2
:101DD0003038CA00F4251F308A0089211E308A005D
:101DE0007F218A156008031DF22E8A01EB016D1018
:101DF0006D11EC146E106E15EE165226BA292030B5
:101E0000E600F901F8010310E50DE40DE30DEA0D1C
:101E1000F80DF90D0318142F68087902031D122F0D
:101E200067087802031C1B2F6708F802031CF903DC
:101E30006808F9026514E60B032F0800E301E401CA
:101E4000E5011830EA00E60CE70CE80C031C322F21
:101E50007F08E5077E0803187E0FE4077D08031856
:101E60007D0FE307E30CE40CE50CE60CE70CE80C53
:101E7000EA0B262F08007D087E047F040319003436
:101E8000D801D901DA013030EA000314E80DE70D7A
:101E9000E60DE50DE40DE30DDA0DD90DD80D7F0843
:101EA000681C5C2FDA027E08031C7E0FD9027D08B5
:101EB000031C7D0FD802652FDA077E0803187E0FFA
:101EC000D9077D0803187D0FD807EA0B462FE80DC8
:101ED000E70DE60DE50DE40DE30D0134A401A301CA
:101EE000AD01AE0103138316B001B101B2010313BA
:101EF00083124130B81A8230B200B101B001AF0193
:101F0000080003138316BA01B901BD01BE01C10166
:101F1000C201C301031383124130B81A8230031384
:101F20008316C000BF01BC01BB010313831208006C
:101F300003138316C701C601CD01CE01CA01CB012F
:101F4000CC01031383124130B81A82300313831675
:0E1F5000D000CF01C901C8010313831208009D
:041F6C00EE19CA2F71
:101F700007147530840000306E1B0330EE1B0630F2
:101F8000F400EE15F3278000F40A840A7830040682
:101F9000031DC22F6E1ADB2FF603031DF12F07104E
:101FA000F503031DD92F6E11EE11EE126E13EE1311
:101FB000F12F6E16F12FF703031DF12F6E12071488
:101FC0007630840001306E1B0430EE1B0730F400C5
:101FD000EE15F3278000F40A840A78300406031D06
:101FE000E92F8A01F128740882070134023402348F
:0E1FF00005340634023405340234023402345F
:102000008B018501EC01ED01EE01313090000030D3
:10201000920003138316B83081000E308500FC3027
:102020008600870106309F000C148C14313092001A
:1020300003138312003086000E30870006148614C6
:102040008518051481018C018317412083134120D9
:102050008A010326522610308A005F20031383165C
:102060007F30DA00DB03031383121430EF00EC102F
:102070000130F3008B1506080B100B178B168B170E
:102080000800203084008001840A841F4328A03087
:1020900084008001840A841B49280800A000A00A4B
:1020A000031783168C130C14031783120C088D0A64
:1020B0008000840A20080406031D502808008313AA
:1020C000031783128D012030840039304E20A63052
:1020D0008400AB304E2048308D00B0308400D730C3
:1020E0004E20031383164408FD3E031C7828C401C8
:1020F0004508FC3E031C7D28C501031383120830EC
:102100008A003708E7003608E8000230E600CE22F1
:10211000E8010D30B81A1A30E700AF226408BD009C
:102120006508BE0008308A00002010308A00D530D3
:1021300084005608FF0000087921031C0129FE00D5
:10214000013C031C012911308A005508FF00592168
:102150005408FF007121E4070318E30A6308E5004F
:102160006408E60084030008FF0059218403000886
:10217000FF007121E4070318E30AFE080319C528CC
:102180006D30E6070318E50AE50A6408E60263080D
:10219000031C630FE502E508031D01296608013CE5
:1021A000031C0129E6080319D7281830E600520855
:1021B000FF007121E60784030008FF007121660219
:1021C000E600063C031C0129E8013C30E7000A3028
:1021D0008A00CE2210308A005108FF007121E507E5
:1021E0000318E40A84030008FF007121E502031CC0
:1021F000E40300306402031DFF2879306502031CEC
:1022000004290F308A009827EA018A01381D080046
:10221000061D080011308A00031383163808031DB9
:1022200017293708031D1729031383122229380899
:1022300036023708031C013E350203138312031CC8
:102240002229EA1708308A000330E800E830E70066
:102250002608E5002508E6001623A63084000008BD
:1022600063020318EA142808E5002708E60016238D
:10227000A73084000008630203186A152A08E500E5
:102280002908E6001623A83084000008630203181A
:10229000EA152C08E5002B08E6001623A930840077
:1022A0000008630203186A168A016A08031DEB2EF0
:1022B00008007121CE00FF3E6421E400E3014E08D6
:1022C000093C031CE30A0800820700341F343B3436
:1022D0005A3478349734B534D434F3341134303438
:1022E0004E347F0E0F39CE004E07CE074E0D7F02C3
:1022F00008007F02FF0D831CFA3E7F1CA03EFF0CEE
:10230000FF000800A000A00A0008D821D021840AFC
:102310000317831220080406031D842908008B1369
:102320008313031783168C18932903138312EB1B53
:10233000A729031783128D012030840034308221B5
:1023400048308D00B0308400D73082210800031758
:10235000831215308D003530840039308221A6304B
:102360008400AB3082218D01203084002230822114
:102370004F308D00B7308400B830822103138312B0
:102380006B1F0800303059183830D9184030031707
:10239000831283178D00283084002F30822108009B
:1023A0008C18D029031783128D0A03138312080097
:1023B000031783128C00031783168C130C155530EA
:1023C0008D00AA308D008C1400000C11080003173A
:1023D00083128D008B13031383125408D821D0214C
:1023E0005508D821D0215608D821D02103138312B3
:1023F0008B178A010800EB17E001D801102A8A0127
:1024000086221D220A166D180A2A6D1DFF29173013
:102410008A00E52FD80A58080C3A031D102AD80163
:102420000A1252267F30C9004130CE000B30CD0059
:102430001B308A00B72317308A00D52712308A0054
:102440006D106D11FF298A011D220A166D182C2AA4
:102450006D1D2F2AB5032D2AB50AE001EC14EC1CE2
:10246000232A8A0152260A167F30C900A0258A0134
:10247000C830C9003508E600E701E801A325640873
:102480000F393038CA006C158825650E0F39303881
:10249000CA00882565080F393038CA00F5250A16A4
:1024A0006D106D11EC10E00A03306002031D232A49
:1024B000E001102A0830D7008A010F30CA00F82541
:1024C000FF30CA00F825BA260A16822A8A011D2280
:1024D0000A166D18752A6D1D802AD70A57080D3AFD
:1024E000031D7E2A0830D7007E2A17308A00BB27BA
:1024F00012308A004008B7003F08B600E001EC1433
:10250000EC1C662A0A1252260A167F30C900A8253A
:10251000C530C9003708E6003608E700E8018A013F
:10252000A32563080F393038CA00F425640E0F392B
:102530003038CA00F42564080F393038CA00F42551
:10254000650E0F393038CA00F42565080F39303868
:10255000CA00F42531250A166D106D11EC10E00A41
:1025600003306002031D662A8A01E0010F30CA00B1
:10257000F825CF30CA00F8250A16102A8A011D2234
:102580000A166D18C72A6D1DCE2AB903C82AB90AC2
:10259000E001EC14473039020318B901EC1CBE2AE3
:1025A0008A0152260A167F30C900C8258A01C83020
:1025B000C9003908E600E701E801A325640E0F39D8
:1025C0003038CA006C15882564080F393038CA00C5
:1025D0008825650E0F393038CA00882565080F39FF
:1025E0003038CA00F525BB30381F6C30F1250A168B
:1025F0006D106D11EC10E00A03306002031DBE2A5D
:10260000E001102A17308A00A22784000008DC00AD
:1026100013308A001D2B8A011D220A166D18142BF7
:102620006D1D1B2BDC03152BDC0AE001EC14423082
:102630005C020318DC01EC1C0B2B8A0152261730BC
:102640008A007F30CC278A01C430C9005C08E600CC
:10265000E701E801A325640E0F393038CA006C1574
:10266000882564080F393038CA008825650E0F396F
:102670003038CA00882565080F393038CA00F5257A
:10268000E930CE000530CD001B308A00B72313306F
:102690008A006D106D11EC10E00A03306002031D1A
:1026A0000B2BE00117308A00A22784005C08800011
:1026B00013308A00102A0730D7008A010F30CA0071
:1026C000F825FF30CA00F825BA260A16852B8A019C
:1026D0001D220A166D18762B6D1D832BD70A5708FD
:1026E0000D3A031D812B0730D700812B17308A004C
:1026F000C32713308A004008A2003F08A100410808
:10270000A000E001EC14EC1C672B8A0152260A168B
:102710007F30C900B8258A01C430C9002208E6000C
:102720002108E7002008E800A325630E0F393038A0
:10273000CA00F42563080F393038CA00F425640E46
:102740000F393038CA00F42564080F393038CA0010
:10275000F425650E0F393038CA00F42565080F39A5
:102760003038CA00F42519308A004D218A013125FC
:102770000A166D106D11EC10E00A03306002031DA3
:10278000672B8A01E0010F30CA00F825CF30CA005C
:10279000F8250A16102A0D30D7008A010F30CA001A
:1027A000F825FF30CA00F825BA260A16FD2B8A0143
:1027B0001D220A166D18E62B6D1DFB2BD70A570834
:1027C000153A031DF92B0D30D700F92B0830DF0027
:1027D0000C305702CD0003104D085F06031DF52B8A
:1027E000B81FF42BB813F52BB817B80DDF0BEC2B73
:1027F000B80DE001EC14EC1CD72B8A0152261730DF
:102800008A00AE2714308A00C330C9000830DF00C8
:102810003130381C3030CA008A01F4250A16B80C51
:10282000DF0B082CB80C8A0131250A166D106D11CA
:10283000EC10E00A03306002031DD72B8A01E0018F
:102840000F30CA00F825CF30CA00F8250A16102A22
:1028500009308A004621D9018A011D220A166D1D00
:10286000382CD90A5908033A0319D901E001EC14AC
:10287000EC1C2C2C8A0152260A167F30C900D02568
:1028800014308A00C030C9006C184C2C19308A00F2
:10289000B92114308A00632C6B1717308A00A92FD6
:1028A000D730CE000230CD005E2CD930CE000330C0
:1028B000CD005E2C0F30CE000730CD001B308A00DB
:1028C000B72314308A006D106D11EC10E00A03304C
:1028D0006002031D2C2CE001102A0930D7000A12D7
:1028E0000F30CA00F825FF30CA00F825BA260A16AC
:1028F0009D2C0A121D220A166D18882C6D1D9B2C0A
:10290000D70A57080D3A031D992C0930D700992C86
:1029100017308A00BB27400803138316B80003133F
:1029200083123F0803138316B70003138312143076
:102930008A00E001EC14EC1C792C06308A00522647
:102940008030C90014308A00E224C630C900031365
:102950008316380803138312E6000313831637081F
:1029600003138312E700E80105308A00A325640EF3
:102970000F393038CA00F42564080F393038CA00DE
:10298000F425650E0F393038CA00F42565080F3973
:102990003038CA00F425312514308A006D106D11CD
:1029A000EC10E00A03306002031D792CE0010F30C7
:1029B000CA0005308A00F825CF30CA00F825123049
:1029C0008A00102AC730CE000E30CD001B308A009E
:1029D000C323080016308A008A2614308A00E001DA
:1029E0000F2D0A121D220A166D18022D6D1D0D2DB8
:1029F00003138316AA0A2A08E63A0319AA03031343
:102A000083120B2D03138316AA032A088B3A03198A
:102A1000AA0A03138312E001EC14EC1CF12C06301B
:102A20008A0052268130C90015308A0028250C30D2
:102A30008A00C730002415308A006D106D11EC102B
:102A4000E00A03306002031DF12C12308A00102AC4
:102A5000DB30CE000230CD001B308A00C323C90A10
:102A60005330CE000930CD001B308A00B723080058
:102A700019308A003D21C90A0730CD002B30B81F1C
:102A80002430CE001B308A00B723080019308A009A
:102A90003521C90A0330CD003B30381F3E30CE000F
:102AA0001B308A00B723080019308A0091211530A5
:102AB0008A002030902D19308A00052119308A00B3
:102AC0000D2115308A001030902D19308A00052113
:102AD00019308A00152115308A000830902D1930E0
:102AE0008A000521C90A19308A002D2115308A0073
:102AF0000430902D19308A000521C90A19308A0046
:102B0000252115308A000230902D19308A000521C8
:102B1000C90A19308A001D2115308A000130902D14
:102B2000CE00C90A0330CD003808CE0503199A2D0E
:102B300016309B2D1930CE001B308A00B7230800B9
:102B40004C30CE001030CD001B308A00B723080077
:102B50005C30CE000530CD001B308A00B723C90A97
:102B60005330CE000930CD001B308A00B723080057
:102B70006130CE000E30CD001B308A00B723080034
:102B80006F30CE001030CD001B308A00B723080014
:102B90007F30CE000E30CD001B308A00B7230800F6
:102BA0008D30CE001030CD001B308A00B7230800D6
:102BB000C530CE001030CD001B308A00C323080082
:102BC0009D30CE001030CD001B308A00B7230800A6
:102BD000AD30CE000F30CD001B308A00B723080087
:102BE000BC30CE001030CD001B308A00B723080067
:102BF000CC30CE000B30CD001B308A00B72308004C
:102C0000D830CE000530CD001B308A00C323C90A5E
:102C10005330CE000930CD001B308A00B7230800A6
:102C2000BF01C101630E0F39C0003026630828269A
:102C3000640E282664082826650E282665080F39A4
:102C4000C007031C00340310BF0A0318C10A003474
:102C50000F39C007031C302E0310BF0A0318C10A26
:102C60000310400DE8003F0DE700410DE6000310A2
:102C7000C00DBF0DC10D0310C00DBF0DC10D031060
:102C8000C00DBF0DC10D6808C007031C4C2E0310FA
:102C9000BF0A0318C10A03106708BF070318C10A57
:102CA0006608C1070034E9000F39EA00EA0A023079
:102CB0006A060319EA01F03069056A040800E900B0
:102CC0000F39EA00EA0A0A306A060319EA01F0300D
:102CD00069056A04080063085326E300102E630E9A
:102CE0005F26E300E30E102E63085F26E300102E3C
:102CF000640E5F26E400E40E102E64085F26E400F4
:102D0000102E650E5F26E500E50E102E65085F2685
:102D1000E500102EC2268F2EBA1EC22EBA12031341
:102D200083166330840063088000840A640880008E
:102D3000840A650880006730840067088000840A80
:102D400066088000031383126708031DAA2E680813
:102D50000319C22E0A308A00AF220313831664308F
:102D600084000008D800840A0008D90016308A00C0
:102D7000EB2616308A0003138316E701E601E5010E
:102D8000E401E3010313831680309F0003138312D1
:102D900088309F001F1406308A00BF2616308A0034
:102DA0001F151F19D12E1F10031383161E08E507C8
:102DB000031383121E0803181E0F03138316E40760
:102DC0000318E30A0130E7070318E60A06309F00FC
:102DD000031383120800031383165D0859025C086D
:102DE000031C013E5802031CF92E5908DD00580847
:102DF000DC005B0859025A08031C013E5802031804
:102E0000052F5908DB005808DA0003138312080065
:102EC0004E088207053406340534003400340034DB
:102ED000013402340A341534153400341034053406
:102EE0000734013407340534073400340034013426
:102EF00002340034003400340834103400340A340E
:102F0000153415340C3414341434013402340534BB
:102F100001340134003400340034003400341F34F0
:102F200015341F34033405340534003400340134BF
:102F300002340034003400340834103400341434C3
:102F40001C340434073058028207A634A734A8344E
:102F5000A93459088207502C552C5A2C7F30C900AF
:102F60000D3057028207852D7A2D6F2D652D5B2D33
:102F7000542D462D382D57080C3C8207862E812E65
:102F80007D2E782E6B2E57080C3C8207862E812EC4
:102F90007D2E782E742E6F2E7F30C9000730580298
:102FA0008207E02DE82DF02DF82DBF30C90058081C
:102FB0008207A02DA82DB82DC02DC82DD02DD82D1D
:102FC000E02DE82DF02DF82D002E58088207312A2B
:102FD0005A2A5B2BCB2BD02A282C6D2C022B022BB0
:062FE000022B022BEA2C7B
:103000000330CD0013305502031C08280130D500D1
:103010005508820700002D283128352839283D28F9
:103020004128452849284D280000000000000000E4
:103030000000000051285528592808305302031C6D
:1030400023280130D3005308820700005D2863283D
:1030500069286F2875287B2881280030CE00C3237B
:1030600008000330CE00C32308000630CE00C3237F
:1030700008000930CE00C32308000C30CE00C32363
:1030800008000F30CE00C32308001230CE00C32347
:1030900008001530CE00C32308001830CE00C3232B
:1030A00008001B30CE00C32308001E30CE00C3230F
:1030B00008002130CE00C32308002430CE000630A3
:1030C000CD00C32308002A30CE000730CD00C32333
:1030D00008003130CE000930CD00C32308003A305B
:1030E000CE000830CD00C32308004230CE000630A9
:1030F000CD00C32308004830CE000830CD00C323E4
:1031000008005030CE000630CD00C32308008430C4
:10311000C9005B30CE000630CD001B308A00C323CF
:1031200008008230C9006130CE000A30CD001B306B
:103130008A00C32308008030C900C730CE000E309B
:10314000CD001B308A00C32308008030C900AF3097
:10315000CE000330CD001B308A00B72318308A0020
:10316000C90A0800A330CE000630CD001B308A000B
:10317000B7230800B330CE000430CD001B308A00E6
:10318000B72308008030C9000030CE000530CD00E4
:103190001B308A00B72308008030C900BF30CE0042
:1031A0000A30CD001B308A00B7230800C900D73091
:1031B000CE000230CD001B308A00B7230800C900C2
:1031C000D930CE000330CD001B308A00B723080071
:1031D0008330C9009130CE000730CD001B308A000B
:1031E000C32308008230C9007630CE000930CD00FC
:1031F0001B308A00C3230800C9007F30CE00023094
:10320000CD001B308A00C32308000530CE000430F7
:10321000CD001B308A00B72308008130CE00093072
:10322000CD001B308A00C32308008B30CE00053050
:10323000CD001B308A00C32308000930CE000630C1
:10324000CD001B308A00B72308000F30CE000730B6
:10325000CD001B308A00B72308003230CE00023088
:10326000CD001B308A00B72308003430CE00073071
:10327000CD001B308A00B72308001C30CE00083078
:10328000CD001B308A00B7230800EC30CE0004309C
:10329000CD001B308A00B7230800EC30CE0002308E
:1032A000CD001B308A00B7230800D530CE00033094
:1032B000CD001B308A00C32308009830CE000430B4
:1032C000CD001B308A00C32308009C30CE000330A1
:1032D000CD001B308A00C32308009F30CE0003308E
:1032E000CD001B308A00C32308008030C900A23003
:1032F000CE000F30CD001B308A00C323080082307F
:10330000C900B130CE000930CD001B308A00C32384
:103310000800F930CE000330CD001B308A00B723FF
:103320000800BA30CE000B30CD001B308A00C3231A
:103330000800DD30CE000130CD001B308A00C323F1
:103340000800DE30CE000130CD001B308A00C323E0
:1033500008006930CE000430CD001B308A00B7234E
:1033600008006930CE000230CD001B308A00B72340
:103370000800DC30CE000D30CD001B308A00B723B2
:1033800008008230C900F030CE000930CD001B307B
:103390008A00B7230800BF30C9006B30CE000B3065
:0A33A000CD001B308A00C323080093
:1037600000278A01F125CE0ACD03031908001F3076
:10377000381F1D308A00B02B00268A01F125CE0AA1
:10378000CD03031908001E30381F1C308A00BC2BE3
:1038000000000000AD3448344234A2344534423420
:103810004D34413450344134873450344D34413484
:1038200085348434AC3448348434AC348634413404
:10383000423492344334453448344F344B34543456
:1038400048344F34AD34813445344B3487344F34AD
:1038500048344534813445348634623448348434C1
:103860004B34423454344F345034483484344B3421
:10387000433450344534813441348A3445345434EB
:1038800042344534503492348734AD34543448345F
:1038900084348934413443348834803480344F3420
:1038A0005434413442344F3443344B34503445342F
:1038B00043344534483462344534433480345034DE
:1038C0004F3443343F344B344F3450345034453408
:1038D0004B3489348434AD343F34743427348134E8
:1038E0004234843492344134543445348634AD34D3
:1038F000843483344D34453450344534483484342E
:1039000045344F3482345434413458344F344D3478
:1039100045345434503443344B344F3450344F34A2
:1039200043345434623450344134833492344F3409
:1039300048343F34703472342F346D346C342F3447
:103940006834B934B034B0344F3482348434813480
:10395000413448348434453420344334543441347D
:1039600050345434413450344534833488348634AC
:1039700062345434413454348734413450344834FC
:103980008E34853420344234873450342E343734E6
:103990002E344D344F3454344F348A34413443340C
:1039A0008E34203481344234843492342E344D3475
:1039B0002F348A34313432342E34553461343E3429
:0239C0003C3495
:103A0000000000004334423445348A348434833423
:103A100088344D342E344B3448344F3487344F344B
:103A20004B347434273481344234843492342E3409
:103A300020344F344E344F344634463454342E34CC
:103A40008134413454348A3484344B3444345334D0
:103A500031343834623432343034443453343134D1
:103A6000383473343234303454344F346D346F342A
:103A70006E34693474346F3472344C3443344434A7
:103A800056344C344934433445345034423484340D
:103A9000433420344D3445344834AC3431342E343E
:103AA0004634553445344C3420344B344F34483448
:103AB00043345434413448345434413432342E3451
:103AC00056345334533433342E344F3480348C349E
:103AD000843485342034873450344F348034453432
:103AE000923434342E348034843454348E3420343C
:103AF000483441344334543450344F3485344B3497
:103B0000843435342E3445344D344B344F344334BF
:103B1000543462342034803441344B3441343634AC
:103B20002E3484344834433454342E342034813495
:103B3000413454348A3484344B344F34423438342E
:103B40002E344D344134433486344F342034813460
:103B50004234843492342E34203454344F34393443
:103B60002E344D344134433486344F342034413480
:103B70004B3487348734203454344F343134303428
:103B80002E3442344F3483342E34A2348434863479
:103B9000623454345034203454344F34313431345A
:103BA0002E344334423445348A34843420345434FB
:103BB0004F3449344E344F34553454344F348B34AD
:103BC000843480344B34413420348A345434453482
:103BD00048348434AD343034303430346B346D3464
:103BE0002F3468344234483484344D3441344834BA
:0C3BF000843445342134433445344B34D4
:103C00004E0882076A3461346E3466346534623437
:103C10006D34613472346134703472346D346134B3
:103C200079346A3475346E346A3475346C34613482
:103C3000753467347334653470346F34633474347A
:103C40006E346F3476346434653463346D346F3479
:103C50006E34643461347934743475346534733457
:103C60006434613479347734653464346E34653463
:103C70007334643461347934743468347534723430
:103C8000733464346134793466347234693464343E
:103C90006134793473346134743475347234643417
:103CA00061347934733475346E3464346134793406
:103CB000203420342034203420347234653473347A
:103CC000653474343F3463346F3472347234653421
:103CD0006334743469346E343F3474342734653457
:103CE0006E34673469346E346534203420342034C3
:103CF0006D346534613473347534723469346E34C0
:103D0000673443344F3474346134633468346F340B
:103D10006D346534743472342034733470346534E3
:103D200065346434203461346334633465346C3412
:103D30003F342034723465347634E9346C342F34B3
:103D400068346C342F34A1342034773461346934CE
:103D5000743469346E3467342034733474346134A9
:103D60007234743420342034203472346534733423
:103D700075346C34743420346434753461346C3488
:103D8000203469346E346A342E342034203437348D
:103D90002E3465346E34673469346E3465342034BF
:103DA00068346F34753472347334203420346D3495
:103DB0002F346834313432342E34553461343E3447
:023DC0003C3491
:103E00004E08820773347034613472346B34733407
:103E10006E34643420346B34653479347334203434
:103E200020347434273465346E3467346E342E3461
:103E300020344F344E344F344634463474342E34A8
:103E4000733465346E3473346F34723444345334A1
:103E500031343834623432343034443453343134CD
:103E6000383473343234303454344F346D346F3426
:103E70006E34693474346F3472344C3443344434A3
:103E800056344C344934533445345234563449341E
:103E900043344534203420342034203431342E341B
:103EA0004634553445344C34203463346F346E34E6
:103EB0007334743461346E347434203432342E34B8
:103EC00056345334533433342E3474346F3474349E
:103ED00061346C3420347434723469347034203476
:103EE000203434342E347334653474347434693487
:103EF0006E34673473342034623469347434733408
:103F0000203435342E346634753465346C342034C2
:103F100063346134703461346334693474343634F6
:103F20002E34733465346E3473346F3472347334B6
:103F3000203469346E347334743461346C343834FE
:103F40002E346F3469346C34203465346E34673405
:103F500069346E346534203454344F342034393469
:103F60002E346F3469346C342034673465346134F2
:103F70007234203454344F342034203431343034CB
:103F80002E346134693472342034663469346C34CC
:103F9000743465347234203454344F343134313411
:103FA0002E3473347034613472346B3420345434AE
:103FB0004F3449344E344F345534543465347234AC
:103FC00072346F3472342034723465346134643442
:103FD00069346E3467343034303430346B346D349B
:103FE0002F34683441345434543445344E345434CA
:0C3FF00049344F344E347334653463346C
:02400E00723FFF
:104200000400A6002E00010084001000BB001A006C
:104210003E000500E40011004F00110048000B00B3
:104220009200390019002A00A0006E003E008000B4
:1042300061003F000A0028000A000A00A6000000F2
:10424000220001002100FF00FF00FF002100030009
:104250002000070001002000FF00FF00FF00FF001A
:10426000FF00FF00FF00FF00FF00FF00FF00FF0056
:10427000FF00FF00FF00FF00FF00FF00FF00FF0046
:10428000FF00FF00FF00FF00FF00FF00FF00FF0036
:1042900000005E008700040070000000AA0000001B
:1042A000000002005B001400BE001A00AA002100FA
:1042B0001E00000092002D0000000100000006001A
:1042C0000A00AA0000000100E30000004C004800C2
:1042D0003A0017001700210007002100000000002D
:00000001FF
